{
  "contractName": "Voting",
  "abi": [
    {
      "anonymous": false,
      "inputs": [
        {
          "indexed": false,
          "internalType": "uint256",
          "name": "id",
          "type": "uint256"
        },
        {
          "indexed": false,
          "internalType": "string",
          "name": "name",
          "type": "string"
        },
        {
          "indexed": false,
          "internalType": "string",
          "name": "party",
          "type": "string"
        }
      ],
      "name": "CandidateAdded",
      "type": "event"
    },
    {
      "anonymous": false,
      "inputs": [
        {
          "indexed": false,
          "internalType": "uint256",
          "name": "id",
          "type": "uint256"
        }
      ],
      "name": "CandidateDeleted",
      "type": "event"
    },
    {
      "anonymous": false,
      "inputs": [
        {
          "indexed": false,
          "internalType": "uint256",
          "name": "votingStart",
          "type": "uint256"
        },
        {
          "indexed": false,
          "internalType": "uint256",
          "name": "votingEnd",
          "type": "uint256"
        }
      ],
      "name": "DatesSet",
      "type": "event"
    },
    {
      "anonymous": false,
      "inputs": [],
      "name": "ElectionReset",
      "type": "event"
    },
    {
      "anonymous": false,
      "inputs": [
        {
          "indexed": false,
          "internalType": "string",
          "name": "mongoID",
          "type": "string"
        },
        {
          "indexed": false,
          "internalType": "uint256",
          "name": "candidateID",
          "type": "uint256"
        }
      ],
      "name": "Voted",
      "type": "event"
    },
    {
      "constant": true,
      "inputs": [
        {
          "internalType": "uint256",
          "name": "",
          "type": "uint256"
        }
      ],
      "name": "candidates",
      "outputs": [
        {
          "internalType": "uint256",
          "name": "id",
          "type": "uint256"
        },
        {
          "internalType": "string",
          "name": "name",
          "type": "string"
        },
        {
          "internalType": "string",
          "name": "party",
          "type": "string"
        },
        {
          "internalType": "uint256",
          "name": "voteCount",
          "type": "uint256"
        }
      ],
      "payable": false,
      "stateMutability": "view",
      "type": "function"
    },
    {
      "constant": true,
      "inputs": [],
      "name": "countCandidates",
      "outputs": [
        {
          "internalType": "uint256",
          "name": "",
          "type": "uint256"
        }
      ],
      "payable": false,
      "stateMutability": "view",
      "type": "function"
    },
    {
      "constant": true,
      "inputs": [
        {
          "internalType": "string",
          "name": "",
          "type": "string"
        }
      ],
      "name": "hasVoted",
      "outputs": [
        {
          "internalType": "bool",
          "name": "",
          "type": "bool"
        }
      ],
      "payable": false,
      "stateMutability": "view",
      "type": "function"
    },
    {
      "constant": true,
      "inputs": [
        {
          "internalType": "uint256",
          "name": "",
          "type": "uint256"
        }
      ],
      "name": "voterIDs",
      "outputs": [
        {
          "internalType": "string",
          "name": "",
          "type": "string"
        }
      ],
      "payable": false,
      "stateMutability": "view",
      "type": "function"
    },
    {
      "constant": true,
      "inputs": [],
      "name": "votingEnd",
      "outputs": [
        {
          "internalType": "uint256",
          "name": "",
          "type": "uint256"
        }
      ],
      "payable": false,
      "stateMutability": "view",
      "type": "function"
    },
    {
      "constant": true,
      "inputs": [],
      "name": "votingStart",
      "outputs": [
        {
          "internalType": "uint256",
          "name": "",
          "type": "uint256"
        }
      ],
      "payable": false,
      "stateMutability": "view",
      "type": "function"
    },
    {
      "constant": false,
      "inputs": [
        {
          "internalType": "string",
          "name": "name",
          "type": "string"
        },
        {
          "internalType": "string",
          "name": "party",
          "type": "string"
        }
      ],
      "name": "addCandidate",
      "outputs": [],
      "payable": false,
      "stateMutability": "nonpayable",
      "type": "function"
    },
    {
      "constant": false,
      "inputs": [
        {
          "internalType": "string",
          "name": "mongoID",
          "type": "string"
        },
        {
          "internalType": "uint256",
          "name": "candidateID",
          "type": "uint256"
        }
      ],
      "name": "vote",
      "outputs": [],
      "payable": false,
      "stateMutability": "nonpayable",
      "type": "function"
    },
    {
      "constant": true,
      "inputs": [
        {
          "internalType": "string",
          "name": "mongoID",
          "type": "string"
        }
      ],
      "name": "checkVote",
      "outputs": [
        {
          "internalType": "bool",
          "name": "",
          "type": "bool"
        }
      ],
      "payable": false,
      "stateMutability": "view",
      "type": "function"
    },
    {
      "constant": true,
      "inputs": [],
      "name": "getCountCandidates",
      "outputs": [
        {
          "internalType": "uint256",
          "name": "",
          "type": "uint256"
        }
      ],
      "payable": false,
      "stateMutability": "view",
      "type": "function"
    },
    {
      "constant": true,
      "inputs": [
        {
          "internalType": "uint256",
          "name": "candidateID",
          "type": "uint256"
        }
      ],
      "name": "getCandidate",
      "outputs": [
        {
          "internalType": "uint256",
          "name": "",
          "type": "uint256"
        },
        {
          "internalType": "string",
          "name": "",
          "type": "string"
        },
        {
          "internalType": "string",
          "name": "",
          "type": "string"
        },
        {
          "internalType": "uint256",
          "name": "",
          "type": "uint256"
        }
      ],
      "payable": false,
      "stateMutability": "view",
      "type": "function"
    },
    {
      "constant": false,
      "inputs": [
        {
          "internalType": "uint256",
          "name": "_startDate",
          "type": "uint256"
        },
        {
          "internalType": "uint256",
          "name": "_endDate",
          "type": "uint256"
        }
      ],
      "name": "setDates",
      "outputs": [],
      "payable": false,
      "stateMutability": "nonpayable",
      "type": "function"
    },
    {
      "constant": true,
      "inputs": [],
      "name": "getDates",
      "outputs": [
        {
          "internalType": "uint256",
          "name": "",
          "type": "uint256"
        },
        {
          "internalType": "uint256",
          "name": "",
          "type": "uint256"
        }
      ],
      "payable": false,
      "stateMutability": "view",
      "type": "function"
    },
    {
      "constant": false,
      "inputs": [],
      "name": "resetElection",
      "outputs": [],
      "payable": false,
      "stateMutability": "nonpayable",
      "type": "function"
    },
    {
      "constant": false,
      "inputs": [
        {
          "internalType": "uint256",
          "name": "candidateID",
          "type": "uint256"
        }
      ],
      "name": "deleteCandidate",
      "outputs": [],
      "payable": false,
      "stateMutability": "nonpayable",
      "type": "function"
    },
    {
      "constant": true,
      "inputs": [],
      "name": "getResults",
      "outputs": [
        {
          "internalType": "uint256[]",
          "name": "",
          "type": "uint256[]"
        },
        {
          "internalType": "string[]",
          "name": "",
          "type": "string[]"
        },
        {
          "internalType": "string[]",
          "name": "",
          "type": "string[]"
        },
        {
          "internalType": "uint256[]",
          "name": "",
          "type": "uint256[]"
        }
      ],
      "payable": false,
      "stateMutability": "view",
      "type": "function"
    }
  ],
  "bytecode": "0x608060405234801561001057600080fd5b50611d8b806100206000396000f3fe608060405234801561001057600080fd5b50600436106101005760003560e01c80634717f97c11610097578063b86eda9111610066578063b86eda91146102b9578063dedf141e146102d7578063e8f30523146102f3578063f4394439146102fd57610100565b80634717f97c1461022e57806385a386351461024f578063974b89d51461026d578063a63858031461029d57610100565b806326541b56116100d357806326541b561461017c5780633477ee2e1461019857806335b8e820146101cb57806339bfeae3146101fe57610100565b80630a84a21714610105578063101158af1461012357806316441813146101415780631e620cd414610160575b600080fd5b61010d61032d565b60405161011a9190611a4a565b60405180910390f35b61012b610337565b6040516101389190611a4a565b60405180910390f35b61014961033d565b604051610157929190611b50565b60405180910390f35b61017a60048036036101759190810190611533565b61034e565b005b61019660048036036101919190810190611473565b610524565b005b6101b260048036036101ad9190810190611533565b610600565b6040516101c29493929190611afd565b60405180910390f35b6101e560048036036101e09190810190611533565b610760565b6040516101f59493929190611aaa565b60405180910390f35b610218600480360361021391908101906113f1565b6108ef565b604051610225919061197d565b60405180910390f35b610236610925565b604051610246949392919061191c565b60405180910390f35b610257610c3f565b6040516102649190611a4a565b60405180910390f35b61028760048036036102829190810190611432565b610c45565b604051610294919061197d565b60405180910390f35b6102b760048036036102b291908101906114df565b610c7a565b005b6102c1610e60565b6040516102ce9190611a4a565b60405180910390f35b6102f160048036036102ec919081019061155c565b610e66565b005b6102fb610eed565b005b61031760048036036103129190810190611533565b611012565b6040516103249190611998565b60405180910390f35b6000600354905090565b60055481565b600080600554600454915091509091565b60008111801561036057506003548111155b61039f576040517f08c379a000000000000000000000000000000000000000000000000000000000815260040161039690611a0a565b60405180910390fd5b6000808281526020019081526020016000206000808201600090556001820160006103ca91906110cb565b6002820160006103da91906110cb565b6003820160009055505060008190505b60035481101561048f57600080600183018152602001908152602001600020600080838152602001908152602001600020600082015481600001556001820181600101908054600181600116156101000203166002900461044c929190611113565b5060028201816002019080546001816001161561010002031660029004610474929190611113565b506003820154816003015590505080806001019150506103ea565b5060008060035481526020019081526020016000206000808201600090556001820160006104bd91906110cb565b6002820160006104cd91906110cb565b60038201600090555050600360008154809291906001900391905055507f5768df5843e58ec5b2fc92eb6ef81241e9ec50a0b93fd074dec58b39efc41720816040516105199190611a4a565b60405180910390a150565b600360008154809291906001019190505550604051806080016040528060035481526020018381526020018281526020016000815250600080600354815260200190815260200160002060008201518160000155602082015181600101908051906020019061059492919061119a565b5060408201518160020190805190602001906105b192919061119a565b50606082015181600301559050507fe64f834082661dd9ed89427b87edb6270fd6dad17198b0938f0edd058914c87f60035483836040516105f493929190611a65565b60405180910390a15050565b6000602052806000526040600020600091509050806000015490806001018054600181600116156101000203166002900480601f0160208091040260200160405190810160405280929190818152602001828054600181600116156101000203166002900480156106b25780601f10610687576101008083540402835291602001916106b2565b820191906000526020600020905b81548152906001019060200180831161069557829003601f168201915b505050505090806002018054600181600116156101000203166002900480601f0160208091040260200160405190810160405280929190818152602001828054600181600116156101000203166002900480156107505780601f1061072557610100808354040283529160200191610750565b820191906000526020600020905b81548152906001019060200180831161073357829003601f168201915b5050505050908060030154905084565b600060608060008460008087815260200190815260200160002060010160008088815260200190815260200160002060020160008089815260200190815260200160002060030154828054600181600116156101000203166002900480601f01602080910402602001604051908101604052809291908181526020018280546001816001161561010002031660029004801561083d5780601f106108125761010080835404028352916020019161083d565b820191906000526020600020905b81548152906001019060200180831161082057829003601f168201915b50505050509250818054600181600116156101000203166002900480601f0160208091040260200160405190810160405280929190818152602001828054600181600116156101000203166002900480156108d95780601f106108ae576101008083540402835291602001916108d9565b820191906000526020600020905b8154815290600101906020018083116108bc57829003601f168201915b5050505050915093509350935093509193509193565b6001818051602081018201805184825260208301602085012081835280955050505050506000915054906101000a900460ff1681565b606080606080606060035460405190808252806020026020018201604052801561095e5781602001602082028038833980820191505090505b509050606060035460405190808252806020026020018201604052801561099957816020015b60608152602001906001900390816109845790505b50905060606003546040519080825280602002602001820160405280156109d457816020015b60608152602001906001900390816109bf5790505b5090506060600354604051908082528060200260200182016040528015610a0a5781602001602082028038833980820191505090505b5090506000600190505b6003548111610c2857610a2561121a565b60008083815260200190815260200160002060405180608001604052908160008201548152602001600182018054600181600116156101000203166002900480601f016020809104026020016040519081016040528092919081815260200182805460018160011615610100020316600290048015610ae55780601f10610aba57610100808354040283529160200191610ae5565b820191906000526020600020905b815481529060010190602001808311610ac857829003601f168201915b50505050508152602001600282018054600181600116156101000203166002900480601f016020809104026020016040519081016040528092919081815260200182805460018160011615610100020316600290048015610b875780601f10610b5c57610100808354040283529160200191610b87565b820191906000526020600020905b815481529060010190602001808311610b6a57829003601f168201915b5050505050815260200160038201548152505090508060000151866001840381518110610bb057fe5b6020026020010181815250508060200151856001840381518110610bd057fe5b60200260200101819052508060400151846001840381518110610bef57fe5b60200260200101819052508060600151836001840381518110610c0e57fe5b602002602001018181525050508080600101915050610a14565b508383838397509750975097505050505090919293565b60045481565b6000600182604051610c5791906118ee565b908152602001604051809103902060009054906101000a900460ff169050919050565b4260055411158015610c8d575042600454115b610ccc576040517f08c379a0000000000000000000000000000000000000000000000000000000008152600401610cc3906119ea565b60405180910390fd5b600081118015610cde57506003548111155b610d1d576040517f08c379a0000000000000000000000000000000000000000000000000000000008152600401610d1490611a0a565b60405180910390fd5b600182604051610d2d91906118ee565b908152602001604051809103902060009054906101000a900460ff1615610d89576040517f08c379a0000000000000000000000000000000000000000000000000000000008152600401610d8090611a2a565b60405180910390fd5b60018083604051610d9a91906118ee565b908152602001604051809103902060006101000a81548160ff0219169083151502179055506002829080600181540180825580915050906001820390600052602060002001600090919290919091509080519060200190610dfc929190611242565b5050600080828152602001908152602001600020600301600081548092919060010191905055507f82ea01a4479f27996bbe8de24f4c8d962035fe2f32a2b130c8c9ca593ab91aa88282604051610e549291906119ba565b60405180910390a15050565b60035481565b6000600454148015610e7a57506000600554145b8015610e8a575042620f42408301115b8015610e9557508181115b610e9e57600080fd5b80600481905550816005819055507f99b4c7979eb9800a4abbef0d42cdf097b6b031b669e7f83d4d1d0cb90f75e58d600554600454604051610ee1929190611b50565b60405180910390a15050565b6000600190505b6003548111610f4f57600080828152602001908152602001600020600080820160009055600182016000610f2891906110cb565b600282016000610f3891906110cb565b600382016000905550508080600101915050610ef4565b50600060038190555060008090505b600280549050811015610fc5576000600160028381548110610f7c57fe5b90600052602060002001604051610f939190611905565b908152602001604051809103902060006101000a81548160ff0219169083151502179055508080600101915050610f5e565b5060026000610fd491906112c2565b600060048190555060006005819055507f8d1085cd9eceaab0b77fd20c66dea55df08e5ef2d52859c2cb4a1e16ba9476c060405160405180910390a1565b6002818154811061101f57fe5b906000526020600020016000915090508054600181600116156101000203166002900480601f0160208091040260200160405190810160405280929190818152602001828054600181600116156101000203166002900480156110c35780601f10611098576101008083540402835291602001916110c3565b820191906000526020600020905b8154815290600101906020018083116110a657829003601f168201915b505050505081565b50805460018160011615610100020316600290046000825580601f106110f15750611110565b601f01602090049060005260206000209081019061110f91906112e3565b5b50565b828054600181600116156101000203166002900490600052602060002090601f016020900481019282601f1061114c5780548555611189565b8280016001018555821561118957600052602060002091601f016020900482015b8281111561118857825482559160010191906001019061116d565b5b50905061119691906112e3565b5090565b828054600181600116156101000203166002900490600052602060002090601f016020900481019282601f106111db57805160ff1916838001178555611209565b82800160010185558215611209579182015b828111156112085782518255916020019190600101906111ed565b5b50905061121691906112e3565b5090565b6040518060800160405280600081526020016060815260200160608152602001600081525090565b828054600181600116156101000203166002900490600052602060002090601f016020900481019282601f1061128357805160ff19168380011785556112b1565b828001600101855582156112b1579182015b828111156112b0578251825591602001919060010190611295565b5b5090506112be91906112e3565b5090565b50805460008255906000526020600020908101906112e09190611308565b50565b61130591905b808211156113015760008160009055506001016112e9565b5090565b90565b61133191905b8082111561132d576000818161132491906110cb565b5060010161130e565b5090565b90565b600082601f83011261134557600080fd5b813561135861135382611ba6565b611b79565b9150808252602083016020830185838301111561137457600080fd5b61137f838284611cde565b50505092915050565b600082601f83011261139957600080fd5b81356113ac6113a782611bd2565b611b79565b915080825260208301602083018583830111156113c857600080fd5b6113d3838284611cde565b50505092915050565b6000813590506113eb81611d31565b92915050565b60006020828403121561140357600080fd5b600082013567ffffffffffffffff81111561141d57600080fd5b61142984828501611334565b91505092915050565b60006020828403121561144457600080fd5b600082013567ffffffffffffffff81111561145e57600080fd5b61146a84828501611388565b91505092915050565b6000806040838503121561148657600080fd5b600083013567ffffffffffffffff8111156114a057600080fd5b6114ac85828601611388565b925050602083013567ffffffffffffffff8111156114c957600080fd5b6114d585828601611388565b9150509250929050565b600080604083850312156114f257600080fd5b600083013567ffffffffffffffff81111561150c57600080fd5b61151885828601611388565b9250506020611529858286016113dc565b9150509250929050565b60006020828403121561154557600080fd5b6000611553848285016113dc565b91505092915050565b6000806040838503121561156f57600080fd5b600061157d858286016113dc565b925050602061158e858286016113dc565b9150509250929050565b60006115a48383611710565b905092915050565b60006115b883836118d0565b60208301905092915050565b60006115cf82611c33565b6115d98185611c79565b9350836020820285016115eb85611bfe565b8060005b8581101561162757848403895281516116088582611598565b945061161383611c5f565b925060208a019950506001810190506115ef565b50829750879550505050505092915050565b600061164482611c3e565b61164e8185611c8a565b935061165983611c0e565b8060005b8381101561168a57815161167188826115ac565b975061167c83611c6c565b92505060018101905061165d565b5085935050505092915050565b6116a081611cc8565b82525050565b60006116b182611c54565b6116bb8185611cac565b93506116cb818560208601611ced565b6116d481611d20565b840191505092915050565b60006116ea82611c54565b6116f48185611cbd565b9350611704818560208601611ced565b80840191505092915050565b600061171b82611c49565b6117258185611c9b565b9350611735818560208601611ced565b61173e81611d20565b840191505092915050565b600061175482611c49565b61175e8185611cac565b935061176e818560208601611ced565b61177781611d20565b840191505092915050565b60008154600181166000811461179f57600181146117c457611808565b607f60028304166117b08187611cbd565b955060ff1983168652808601935050611808565b600282046117d28187611cbd565b95506117dd85611c1e565b60005b828110156117ff578154818901526001820191506020810190506117e0565b82880195505050505b505092915050565b600061181d601483611cac565b91507f566f74696e67206973206e6f74206163746976650000000000000000000000006000830152602082019050919050565b600061185d601483611cac565b91507f496e76616c69642063616e6469646174652049440000000000000000000000006000830152602082019050919050565b600061189d601683611cac565b91507f596f75206861766520616c726561647920766f746564000000000000000000006000830152602082019050919050565b6118d981611cd4565b82525050565b6118e881611cd4565b82525050565b60006118fa82846116df565b915081905092915050565b60006119118284611782565b915081905092915050565b600060808201905081810360008301526119368187611639565b9050818103602083015261194a81866115c4565b9050818103604083015261195e81856115c4565b905081810360608301526119728184611639565b905095945050505050565b60006020820190506119926000830184611697565b92915050565b600060208201905081810360008301526119b28184611749565b905092915050565b600060408201905081810360008301526119d481856116a6565b90506119e360208301846118df565b9392505050565b60006020820190508181036000830152611a0381611810565b9050919050565b60006020820190508181036000830152611a2381611850565b9050919050565b60006020820190508181036000830152611a4381611890565b9050919050565b6000602082019050611a5f60008301846118df565b92915050565b6000606082019050611a7a60008301866118df565b8181036020830152611a8c81856116a6565b90508181036040830152611aa081846116a6565b9050949350505050565b6000608082019050611abf60008301876118df565b8181036020830152611ad181866116a6565b90508181036040830152611ae581856116a6565b9050611af460608301846118df565b95945050505050565b6000608082019050611b1260008301876118df565b8181036020830152611b248186611749565b90508181036040830152611b388185611749565b9050611b4760608301846118df565b95945050505050565b6000604082019050611b6560008301856118df565b611b7260208301846118df565b9392505050565b6000604051905081810181811067ffffffffffffffff82111715611b9c57600080fd5b8060405250919050565b600067ffffffffffffffff821115611bbd57600080fd5b601f19601f8301169050602081019050919050565b600067ffffffffffffffff821115611be957600080fd5b601f19601f8301169050602081019050919050565b6000819050602082019050919050565b6000819050602082019050919050565b60008190508160005260206000209050919050565b600081519050919050565b600081519050919050565b600081519050919050565b600081519050919050565b6000602082019050919050565b6000602082019050919050565b600082825260208201905092915050565b600082825260208201905092915050565b600082825260208201905092915050565b600082825260208201905092915050565b600081905092915050565b60008115159050919050565b6000819050919050565b82818337600083830152505050565b60005b83811015611d0b578082015181840152602081019050611cf0565b83811115611d1a576000848401525b50505050565b6000601f19601f8301169050919050565b611d3a81611cd4565b8114611d4557600080fd5b5056fea365627a7a72315820127c4ede7eb916412648bd79a7ef1fcbbe60bc682ed83eb5c1940f822f4decff6c6578706572696d656e74616cf564736f6c63430005100040",
  "source": "pragma solidity ^0.5.16;\npragma experimental ABIEncoderV2;\n\ncontract Voting {\n    struct Candidate {\n        uint id;\n        string name;\n        string party;\n        uint voteCount;\n    }\n\n    mapping(uint => Candidate) public candidates;\n    mapping(string => bool) public hasVoted; // Mapping for mongoID to voted status\n    string[] public voterIDs; // Array to keep track of all voter IDs\n    uint public countCandidates;\n    uint256 public votingEnd;\n    uint256 public votingStart;\n\n    // Events\n    event CandidateAdded(uint id, string name, string party);\n    event Voted(string mongoID, uint candidateID); // Updated to use mongoID\n    event DatesSet(uint256 votingStart, uint256 votingEnd);\n    event ElectionReset();\n    event CandidateDeleted(uint id);\n\n    function addCandidate(string memory name, string memory party) public {\n        countCandidates++;\n        candidates[countCandidates] = Candidate(\n            countCandidates,\n            name,\n            party,\n            0\n        );\n        emit CandidateAdded(countCandidates, name, party);\n    }\n\n    function vote(string memory mongoID, uint candidateID) public {\n        require(\n            (votingStart <= block.timestamp) && (votingEnd > block.timestamp),\n            \"Voting is not active\"\n        );\n\n        require(\n            candidateID > 0 && candidateID <= countCandidates,\n            \"Invalid candidate ID\"\n        );\n\n        require(\n            !hasVoted[mongoID],\n            \"You have already voted\"\n        );\n\n        hasVoted[mongoID] = true; // Mark this mongoID as having voted\n        voterIDs.push(mongoID); // Store mongoID to allow resetting votes\n        candidates[candidateID].voteCount++;\n        emit Voted(mongoID, candidateID);\n    }\n\n    function checkVote(string memory mongoID) public view returns (bool) {\n        return hasVoted[mongoID];\n    }\n\n    function getCountCandidates() public view returns (uint) {\n        return countCandidates;\n    }\n\n    function getCandidate(\n        uint candidateID\n    ) public view returns (uint, string memory, string memory, uint) {\n        return (\n            candidateID,\n            candidates[candidateID].name,\n            candidates[candidateID].party,\n            candidates[candidateID].voteCount\n        );\n    }\n\n    function setDates(uint256 _startDate, uint256 _endDate) public {\n        require(\n            (votingEnd == 0) &&\n                (votingStart == 0) &&\n                (_startDate + 1000000 > now) &&\n                (_endDate > _startDate)\n        );\n        votingEnd = _endDate;\n        votingStart = _startDate;\n        emit DatesSet(votingStart, votingEnd);\n    }\n\n    function getDates() public view returns (uint256, uint256) {\n        return (votingStart, votingEnd);\n    }\n\n    function resetElection() public {\n        // Reset candidates\n        for (uint i = 1; i <= countCandidates; i++) {\n            delete candidates[i];\n        }\n        countCandidates = 0;\n\n        // Reset voter statuses\n        for (uint i = 0; i < voterIDs.length; i++) {\n            hasVoted[voterIDs[i]] = false;\n        }\n        delete voterIDs; // Clear the voter IDs array\n\n        // Reset voting dates\n        votingEnd = 0;\n        votingStart = 0;\n\n        // Emit an event indicating the election has been reset\n        emit ElectionReset();\n    }\n\n    function deleteCandidate(uint candidateID) public {\n        require(\n            candidateID > 0 && candidateID <= countCandidates,\n            \"Invalid candidate ID\"\n        );\n\n        delete candidates[candidateID];\n\n        for (uint i = candidateID; i < countCandidates; i++) {\n            candidates[i] = candidates[i + 1];\n        }\n        delete candidates[countCandidates];\n        countCandidates--;\n        emit CandidateDeleted(candidateID);\n    }\n\n    function getResults()\n        public\n        view\n        returns (uint[] memory, string[] memory, string[] memory, uint[] memory)\n    {\n        uint[] memory ids = new uint[](countCandidates);\n        string[] memory names = new string[](countCandidates);\n        string[] memory parties = new string[](countCandidates);\n        uint[] memory votes = new uint[](countCandidates);\n\n        for (uint i = 1; i <= countCandidates; i++) {\n            Candidate memory candidate = candidates[i];\n            ids[i - 1] = candidate.id;\n            names[i - 1] = candidate.name;\n            parties[i - 1] = candidate.party;\n            votes[i - 1] = candidate.voteCount;\n        }\n\n        return (ids, names, parties, votes);\n    }\n}\n",
  "sourcePath": "C:\\Users\\Bhumil Dobariya\\Desktop\\BlockBallot-main\\backend\\contracts\\Voting.sol",
  "compiler": {
    "name": "solc",
    "version": "0.5.16+commit.9c3226ce.Emscripten.clang"
  },
  "schemaVersion": "3.4.16",
  "updatedAt": "2024-09-08T06:27:37.930Z",
  "networkType": "ethereum",
  "devdoc": {
    "methods": {}
  },
  "userdoc": {
    "methods": {}
  }
}